:020000020000FC
:1000000011C004C00EC040C00CC00BC023C009C04A
:1000100008C007C006C005C004C003C002C001C0BC
:1000200000C0189540EE4ABB44E047BB00E010E03A
:1000300022E031E040E24BBF41E040BD42E24CB93A
:1000400042E04EBD3BBD40E04ABD40E04DBD4CBD31
:100050007894FFCF40E04DBD4CBD521799F0F0E0D1
:10006000E4EE40E0E50FF41FC895402D53954BBBDF
:10007000F0E0E4EE40E0E50FF41FC895402D539505
:1000800048BB1895512FEBCFB099189503950130C7
:1000900079F0023091F00330A9F00430C1F005305E
:1000A00009F0189500E010E022E052E03FE213C0B2
:1000B00012E026E056E03AEF0EC016E02CE05CE0DD
:1000C00030E509C01CE020E350E330E104C010E358
:1000D00026E356E330E53BBD40E04ABD40E04DBD80
:1000E0004CBD1895E004E00400008004C000A000AE
:1000F0000000800400000000800400000000C00038
:1001000000000000C00000000000A000000000008F
:0A011000A0000000A000C000800461
:00000001FF
